S0190000536D61727420486F6D65204D61737465722E73726563CF
S11300000C942A000C9447000C9447000C9447006D
S11300100C9447000C9447000C9447000C94470040
S11300200C9447000C9447000C9447000C94470030
S11300300C9447000C9447000C9447000C94470020
S11300400C9447000C9447000C9447000C945B00FC
S11300500C94470011241FBECFE5D8E0DEBFCDBF0E
S113006010E0A0E6B0E0E4E7F9E002C005900D92EC
S1130070AA3AB107D9F721E0AAEAB0E001C01D927B
S1130080AB31B207E1F70E942D010C94B8040C9433
S1130090000011B880E280B984E086BF08958091A1
S11300A0AE00811107C081E08093AE008093AD0063
S11300B085EA86BF08951F920F920FB60F921124FE
S11300C08F939F93EF93FF9381B1887F8832E1F1FF
S11300D040F48031E1F1883189F1883009F071C050
S11300E00AC0803509F440C0883509F44BC0803417
S11300F009F067C036C08091AB00882349F0809135
S11301001A0180931801809119018093B3000FC0E4
S11301108091B1008093B200E091B200F0E0E95523
S1130120FF4F80818093180183E38093B300809113
S11301301801880F83B985E886BF4BC08091B3004E
S113014083B985E886BF45C085EA86BF42C08091F1
S1130150180190E0880F991F816083B985E886BFF4
S113016038C085EC86BF35C08091AB00811107C0D3
S1130170E091B200F0E083B1E155FF4F808385E860
S113018086BF27C08091AB00811112C0E091B200FC
S1130190F0E083B1E155FF4F80838091B1008F5F20
S11301A08093B1008091B100823010F01092B100C0
S11301B01092AB001092AE001092AD0084E986BF9D
S11301C008C01092AB001092AE001092AD0084E90A
S11301D086BFFF91EF919F918F910F900FBE0F906B
S11301E01F90189510BC83E389B988E18AB986E821
S11301F080BD08955F9BFECF8CB108955D9BFECFBB
S11302008CB90895CF93DF93EC0103C021960E942B
S1130210FE0088818111FACFDF91CF910895FC010E
S11302202081243421F421E32093190105C02334CF
S113023019F422E320931901FC018181813319F01F
S1130240823329F007C080E180931A0103C081E161
S113025080931A010E944F000895CF93DF93CDB786
S1130260DEB7C054D1090FB6F894DEBF0FBECDBFC0
S11302700E94F2000E94490078942FEF80E792E0F8
S1130280215080409040E1F700C0000084E690E0F7
S11302900E94020100E010E05F9B43C00E94FA004C
S11302A08A3011F08D3081F5E091AA00EE23A1F39C
S11302B0F0E0EC54FF4F10828091AC00882369F089
S11302C08091B40083548230E0F481E08093AB00E9
S11302D084EB90E00E940F0114C060E670E084EBB0
S11302E090E00E94C501892B41F481E08093AC0029
S11302F086E790E00E94020104C084E690E00E9438
S113030002011092AA00C8CFE091AA00E33620F6B9
S113031091E09E0F9093AA00F0E0EC54FF4F80838D
S1130320BBCF8091AC00882309F4B6CF0F5F1F4F79
S1130330003127E2120708F4AFCF8091AD0081119C
S113034006C08091AB00811102C00E944F00EFEA09
S1130350F0E0918180811F929F931F928F938AE88E
S113036090E09F938F938E010F5F1F4F1F930F9306
S11303700E94CE01C8010E9402010FB6F894DEBFAC
S11303800FBECDBF00E010E087CFFB01DC018D91F3
S1130390019080190110D9F3990B0895AEE0B0E0F3
S11303A0E4EDF1E00C948F040D891E8986E08C83C2
S11303B01A8309838FEF9FE79E838D83AE01475E87
S11303C05F4F6F89788DCE0101960E94F001EF8115
S11303D0F885E00FF11F10822E96E4E00C94AB0434
S11303E0ABE0B0E0E6EFF1E00C9481046C017B013A
S11303F08A01FC0117821682838181FFCCC1CE0160
S113040001963C01F6019381F70193FD859193FFD9
S113041081917F01882309F4BAC1853239F493FDAF
S1130420859193FF81917F01853229F4B60190E093
S11304300E94E703E7CF912C212C312CFFE1F31527
S1130440D8F08B3279F038F4803279F08332A1F429
S1130450232D20611DC08D3261F0803369F4232D7A
S1130460216016C0832D8260382EE32DE4603E2E79
S11304702AC0F32DF8601DC037FC2DC020ED280FD5
S11304802A3040F08E32B9F436FC81C1232D206429
S1130490322E19C036FE06C08AE0989E200D112423
S11304A0922E11C0EAE02E9E200D1124222EF32D4F
S11304B0F0623F2E08C08C3621F4832D8068382EDC
S11304C002C0883641F4F70193FD859193FF819131
S11304D07F018111B3CF982F9F7D9554933028F4D9
S11304E00C5F1F4F9FE399830DC0833631F0833730
S11304F071F0833509F059C021C0F80180818983E6
S11305000E5F1F4F88248394912C530113C028013C
S1130510F2E04F0E511CF801A080B18036FE03C0FA
S1130520692D70E002C06FEF7FEFC5010E94DC030C
S11305304C018201F32DFF773F2E16C0280122E0E3
S1130540420E511CF801A080B18036FE03C0692D13
S113055070E002C06FEF7FEFC5010E94D1034C0130
S1130560F32DF0683F2E820133FC1BC0822D90E0F6
S113057088169906B0F4B60180E290E00E94E70381
S11305802A94F4CFF50137FC859137FE81915F0100
S1130590B60190E00E94E70321102A9421E0821A18
S11305A091088114910471F7E8C0843611F08936FA
S11305B041F5F80137FE07C0608171818281938122
S11305C00C5F1F4F08C060817181072E000C880BDF
S11305D0990B0E5F1F4FF32DFF763F2E97FF09C037
S11305E090958095709561957F4F8F4F9F4FF068E0
S11305F03F2E2AE030E0A3010E942304882E8618AF
S113060045C0853731F4232D2F7EB22E2AE030E009
S113061025C0932D997FB92E8F36C1F018F48835F3
S113062079F0B5C0803719F0883721F0B0C0E92FD0
S1130630E061BE2EB4FE0DC0FB2DF460BF2E09C0D8
S113064034FE0AC0292F2660B22E06C028E030E00E
S113065005C020E130E002C020E132E0F801B7FE3D
S113066007C060817181828193810C5F1F4F06C036
S11306706081718180E090E00E5F1F4FA3010E94B2
S11306802304882E8618FB2DFF773F2E36FE0DC0DF
S1130690232D2E7FA22E891458F434FE0BC032FC75
S11306A009C0832D8E7EA82E05C0B82CA32C03C0B0
S11306B0B82C01C0B92CA4FE0FC0FE01E80DF11D39
S11306C08081803321F49A2D997EA92E09C0A2FE3F
S11306D006C0B394B39404C08A2D867809F0B39409
S11306E0A3FC11C0A0FE06C0B21488F4280C922CFE
S11306F09B180EC0B21460F4B60180E290E00E9430
S1130700E703B394F7CFB21418F42B1802C0982C53
S1130710212CA4FE10C0B60180E390E00E94E70300
S1130720A2FE17C0A1FC03C088E790E002C088E5E0
S113073090E0B6010CC08A2D867859F0A1FE02C063
S11307408BE201C080E2A7FC8DE2B60190E00E943A
S1130750E703891438F4B60180E390E00E94E703CC
S11307609A94F7CF8A94F301E80DF11D8081B601C4
S113077090E00E94E7038110F5CF222009F442CED5
S1130780B60180E290E00E94E7032A94F6CFF601D6
S11307908681978102C08FEF9FEF2B96E2E10C9444
S11307A09D04FC010590615070400110D8F78095BC
S11307B090958E0F9F1F0895FC0161507040019029
S11307C00110D8F7809590958E0F9F1F08950F9371
S11307D01F93CF93DF93FB01238121FD03C08FEF90
S11307E09FEF2CC022FF16C046815781248135819A
S11307F04217530744F4A081B1819D012F5F3F4FFD
S1130800318320838C93268137812F5F3F4F378339
S1130810268314C08B01EC01FB010084F185E02DDB
S11308200995892BE1F6D80116968D919C9117971D
S1130830019617969C938E931697CE01DF91CF91D4
S11308401F910F910895FA01AA27283051F1203100
S113085081F1E8946F936E7F6E5F7F4F8F4F9F4F50
S1130860AF4FB1E03ED0B4E03CD0670F781F891F92
S11308709A1FA11D680F791F8A1F911DA11D6A0F60
S1130880711D811D911DA11D20D009F468943F9113
S11308902AE0269F11243019305D3193DEF6CF0112
S11308A00895462F4770405D4193B3E00FD0C9F7D8
S11308B0F6CF462F4F70405D4A3318F0495D31FD45
S11308C04052419302D0A9F7EACFB4E0A695979598
S11308D0879577956795BA95C9F70097610571056E
S11308E008959B01AC010A2E0694579547953795B8
S11308F02795BA95C9F7620F731F841F951FA01D12
S113090008952F923F924F925F926F927F928F92AF
S11309109F92AF92BF92CF92DF92EF92FF920F938A
S11309201F93CF93DF93CDB7DEB7CA1BDB0B0FB694
S1130930F894DEBF0FBECDBF09942A883988488851
S11309405F846E847D848C849B84AA84B984C884E7
S1130950DF80EE80FD800C811B81AA81B981CE0FDE
S1130960D11D0FB6F894DEBF0FBECDBFED010895C3
S1070970F894FFCF25
S113097431323300456E7465722050617373776F3E
S113098472643A0D0A00436F727265637420506195
S11309947373776F72643A0D0A0053656E736F72E2
S11309A420313A2025642C2053656E736F722032F3
S10D09B43A2025640D0A001011001A
S9030000FC
