S0180000536D61727420486F6D6520526F6F6D322E737265636D
S11300000C942A000C9447000C9447000C9447006D
S11300100C9447000C9447000C9447000C94470040
S11300200C9447000C9447000C9447000C94470030
S11300300C9447000C9447000C9447000C94470020
S11300400C9447000C9447000C9447000C944E0009
S11300500C94470011241FBECFE5D8E0DEBFCDBF0E
S113006010E0A0E6B0E0E2E8F1E002C005900D92F5
S1130070A236B107D9F720E0A2E6B0E001C01D9294
S1130080A336B207E1F70E94B4000C94BF000C94AD
S11300900000880F82B985E486BF08951F920F92ED
S11300A00FB60F9211248F939F9381B1887F803A6A
S11300B009F44EC040F48038A1F08838C1F080368D
S11300C009F049C00BC0883BE9F118F4883AA9F05B
S11300D042C0803CD1F1883CC1F13DC085EC86BF73
S11300E03CC083B18093620085EC86BF36C083B187
S11300F08093620085EC86BF30C0809162008233B9
S113010081F018F4813331F01AC0833389F08433D9
S113011099F015C09BB382E089278BBB81E383B937
S11301200EC09BB384E089278BBB82E383B907C0ED
S11301308091610083B903C08091600083B985EC2C
S113014086BF0BC085EC86BF08C085EC86BF05C0A2
S113015085EC86BF02C085EC86BF9F918F910F907E
S11301600FBE0F901F90189581E10E94490078946A
S11301708AB382608ABB8AB384608ABBFFCFF89457
S1050180FFCFAB
S10501820D2446
S9030000FC
