S01C000048756D6964746979205F73656E736F725F6C63642E7372656310
S11300000C94A7000C94C4000C94C4000C94C40079
S11300100C94C4000C94C4000C94C4000C94C4004C
S11300200C94C4000C94C4000C94C4000C94C4003C
S11300300C94C4000C94C4000C94C4000C94C4002C
S11300400C94C4000C94C4000C94C4000C94C4001C
S11300500C94C40000407A10F35A00A0724E1809A0
S11300600010A5D4E80000E87648170000E40B541B
S1130070020000CA9A3B000000E1F50500008096EA
S11300809800000040420F000000A086010000001C
S1130090102700000000E8030000000064000000D6
S11300A000000A00000000000100000000002C769F
S11300B0D888DC674F0823DFC1DFAE59E1B1B796BA
S11300C0E5E3E453C63AE651997696E8E6C2842617
S11300D0EB898C9B62ED407C6FFCEFBC9C9F40F2F3
S11300E0BAA56FA5F490055A2AF75C936B6CF9676F
S11300F06DC11BFCE0E40D47FEF520E6B500D0ED34
S1130100902E0300943577050080841E080000209B
S11301104E0A000000C80C333333330F986E128339
S11301201141EF8D2114893BE65516CFFEE6DB180D
S1130130D1844B381BF77C1D901DA4BBE4242032D2
S113014084725E228100C9F124ECA1E53D271124CB
S11301501FBECFE5D8E0DEBFCDBF10E0A0E6B0E023
S1130160EAE5FCE002C005900D92A837B107D9F783
S113017020E0A8E7B0E001C01D92AC37B207E1F778
S11301800E94F4010C942B060C9400008AB3816045
S11301908ABB8BB38E7F8BBB8FE39CE90197F1F70E
S11301A000C000008BB381608BBB90E59A95F1F79A
S11301B08AB38E7F8ABB08958AE68A95F1F700C0D8
S11301C0C8990EC095ED9A95F1F70000C89902C040
S11301D080E001C081E095ED9A95F1F70000089563
S11301E080E0089580E090E017C0C89BFECF2AE627
S11301F02A95F1F700C0C89B0CC047E050E0491BAA
S1130200510921E030E002C0220F331F4A95E2F782
S1130210822BC899FECF9F5F983038F30895CF9210
S1130220DF92EF92FF920F931F93CF93DF937C01A2
S11302308B010E94C6000E94DC00882309F459C087
S11302400E94F200D82F0E94F200C82E0E94F200F1
S1130250C82F0E94F200D82E0E94F2009D2F9C0D00
S11302609C0F9D0D891344C06D2F70E0762F662777
S11302706C0D711DD0E0DC2FCC27CD0DD11D80E09D
S113028090E00E94EB0220E030E040E251E40E9462
S11302907902F7016083718382839383DD23B4F44D
S11302A0DF77BE0180E090E00E94EB0220E030E0C6
S11302B040E251E40E947902DC01CB01B058F8011C
S11302C080839183A283B38381E013C0BE0180E065
S11302D090E00E94EB0220E030E040E251E40E9412
S11302E07902F801608371838283938381E001C082
S11302F080E0DF91CF911F910F91FF90EF90DF90FD
S1130300CF90089585BB82B38E7F82BB82B38D7FED
S113031082BB82B3846082BB8FE99FE00197F1F7CF
S113032000C0000082B38B7F82BB089588E30E94E3
S113033082018FEC97E00197F1F700C0000081E0A3
S11303400E9482018FEC97E00197F1F700C0000052
S113035082E00E9482018FEC97E00197F1F700C0E0
S1130360000086E00E9482018FEC97E00197F1F78C
S113037000C0000080E80E9482018FEC97E00197A2
S1130380F1F700C00000089585BB82B3816082BB91
S113039082B38D7F82BB82B3846082BB8FE99FE08E
S11303A00197F1F700C0000082B38B7F82BB0895F0
S11303B0CF93DF93EC0103C021960E94C40188818E
S11303C08111FACFDF91CF91089584E690E00E94E5
S11303D0D80180EC0E94820180E790E00E94D8015D
S11303E08EE00E9482010895CF93DF93CDB7DEB7EC
S11303F064970FB6F894DEBF0FBECDBF8FEF84BBFA
S113040081BB0E9496018FEC97E00197F1F700C041
S113041000008CE00E9482018FEC97E00197F1F7D5
S113042000C000000E94E50187B3836087BB68E7D2
S113043070E080E690E00E940F01882309F450C028
S113044060916000709161008091620090916300FE
S11304508E010F5F1F4F21E046E00E94A2038AE84D
S11304600E948201C8010E94D801609178007091B5
S1130470790080917A0090917B00065F1F4F21E004
S113048045E00E94A20387EC0E948201C8010E94F9
S1130490D80188B38D7F88BBC0906000D090610084
S11304A0E0906200F090630020E030E040EA51E424
S11304B0C701B6010E947402181654F420E030E01B
S11304C040EA52E4C701B6010E949D03882324F048
S11304D088B3816088BBABCF88B38E7F88BBA7CF3E
S11304E088B3826088BBA3CF0E94280308F481E00C
S11304F008950E948D020C9463030E945C0358F0DB
S11305000E94550340F029F45F3F29F00C944C03FA
S113051051110C9497030C9452030E94740368F3D2
S11305209923B1F3552391F3951B550BBB27AA27A8
S113053062177307840738F09F5F5F4F220F331FE2
S1130540441FAA1FA9F335D00E2E3AF0E0E832D0AA
S113055091505040E695001CCAF72BD0FE2F29D0AD
S1130560660F771F881FBB1F261737074807AB077F
S1130570B0E809F0BB0B802DBF01FF2793585F4FF4
S11305803AF09E3F510578F00C944C030C94970379
S11305905F3FE4F3983ED4F3869577956795B795D6
S11305A0F7959F5FC9F7880F911D9695879597F9E1
S11305B00895E1E0660F771F881FBB1F621773075A
S11305C08407BA0720F0621B730B840BBA0BEE1F6F
S11305D088F7E0950895E89409C097FB3EF4909558
S11305E08095709561957F4F8F4F9F4F9923A9F008
S11305F0F92F96E9BB279395F69587957795679597
S1130600B795F111F8CFFAF4BB0F11F460FF1BC0DA
S11306106F5F7F4F8F4F9F4F16C0882311F096E96D
S113062011C0772321F09EE8872F762F05C066231B
S113063071F096E8862F70E060E02AF09A95660FD4
S1130640771F881FDAF7880F9695879597F908958D
S1130650990F0008550FAA0BE0E8FEEF16161706CF
S1130660E807F907C0F012161306E407F50798F037
S1130670621B730B840B950B39F40A2661F0232B50
S1130680242B252B21F408950A2609F4A140A695CC
S11306908FEF811D811D089597F99F6780E870E0B1
S11306A060E008959FEF80EC089500240A941616E4
S11306B0170618060906089500240A94121613064C
S11306C0140605060895092E0394000C11F48823DA
S11306D052F0BB0F40F4BF2B11F460FF04C06F5FF6
S11306E07F4F8F4F9F4F089557FD9058440F551FCC
S11306F059F05F3F71F04795880F97FB991F61F0A0
S11307009F3F79F087950895121613061406551F16
S1130710F2CF4695F1DF08C0161617061806991F82
S1130720F1CF86957105610508940895E894BB2777
S113073066277727CB0197F908950E94280308F4C8
S11307408FEF0895EF920F931F93CF93DF93E801F8
S113075047FD02C034E001C034E1042E000C550B07
S113076057FF03C0519541955109E32E022F242FC1
S1130770AE010E94C203CE01DF91CF911F910F9170
S1130780EF900895A9E0B0E0E8ECF3E00C94FA05EA
S11307906A01122FB02E2BE3201720F0FF24F394CC
S11307A0F00E02C02CE3F22E0F2D27E0AE014F5FB6
S11307B05F4F0E941C05BC014981842F89708130E0
S11307C031F0E1FC06C0E0FE06C090E205C09DE207
S11307D003C09BE201C090E05E2D507143FF3CC01A
S11307E0911102C083E001C084E0811718F4212F25
S11307F0281B01C020E051110BC0F601822F30E20A
S1130800882319F031938150FBCFC20ED11C20E014
S1130810992329F0D6019C93F60131966F01C60104
S11308200396E2FE0AC03EE4D6013C9341E41196ED
S11308304C93119712963C9306C03EE6F601308322
S113084041E641833283FC01322F40E2332309F431
S113085042C041933150FACF42FF44C0911102C0CB
S113086083E001C084E0811718F4212F281B01C004
S113087020E051110BC0F601822F30E2882319F0D9
S113088031938150FBCFC20ED11C20E0992329F073
S1130890D6019C93F60131966F01C6010396E2FEE0
S11308A00BC039E4D6013C933EE411963C93119776
S11308B036E412963C9307C039E6F60130833EE6EF
S11308C0318336E63283FC01322F40E2332319F0C0
S11308D041933150FBCFFC01E20FF11D10828EEFEA
S11308E09FEFA6C021E030E0911102C020E030E08B
S11308F0161617061CF4FB01319602C0E1E0F0E085
S11309002E0F3F1FBB2021F0EB2DF0E0319602C0EB
S1130910E0E0F0E02E0F3F1FE12FF0E02E173F073D
S11309201CF4121B212F01C020E08E2D887159F474
S1130930F601822F30E2882319F031938150FBCFE6
S1130940C20ED11C20E0992329F0D6019C93F60114
S113095031966F0151110BC0F601822F90E3882369
S113096019F091938150FBCFC20ED11C20E00F2DC2
S1130970060F9A81342F307144FF03C0913309F478
S11309800150101624F4093018F008E001C001E009
S1130990AB0177FF02C040E050E0FB01E41BF50B24
S11309A0A1E0B0E0AC0FBD1FEA0FFB1F8EE2A82E42
S11309B04B01801A91080B2D10E011950195110936
S11309C04F3FBFEF5B0721F4D601AC9211966D0146
S11309D0641775072CF08416950614F4818101C000
S11309E080E3415051093196D60111967D0140179B
S11309F0510724F0D6018C936701E2CF6417750781
S1130A0039F4963320F4953319F4311101C081E39C
S1130A10F6018083F701822F90E2882319F09193E5
S1130A208150FBCFF701E20FF11D108280E090E0CE
S1130A302996ECE00C941606283008F027E03327BA
S1130A40DA01990F311D87FD9160009661057105EA
S1130A5039F432602E5F3D9330E32A95E1F708952F
S1130A609F3F30F080387105610509F03C5F3C5FC1
S1130A703D93913008F08068911DDF93CF931F93CD
S1130A800F93FF92EF92192F987F9695E92F9695E1
S1130A909695E90FFF27E255FF4F99273327EE2458
S1130AA0FF24A701E70105900894079428F4360F62
S1130AB0E71EF81E491F511D660F771F881F991FD7
S1130AC00694A1F70590079428F4E70EF81E491F31
S1130AD0561FC11D770F881F991F661F0694A1F723
S1130AE00590079428F4F80E491F561FC71FD11DFF
S1130AF0880F991F661F771F0694A1F70590079426
S1130B0020F4490F561FC71FD81F990F661F771F60
S1130B10881F0694A9F784911095177041F0D69513
S1130B20C79557954795F794E7941A95C1F7E4E567
S1130B30F0E0689415901591359165919591059023
S1130B407FE27395E118F10A430B560BC90BD009E8
S1130B50C0F7E10CF11E431F561FC91FD01D7EF4C0
S1130B60703311F48A95E6CFE894015030F0080F01
S1130B700AF40027021708F4202F2395022F7A3352
S1130B8028F079E37D932A95E9F710C07D932A959F
S1130B9089F6069497956795379517951794E118F4
S1130BA0F10A430B560BC90BD00998F023957E919B
S1130BB073957A3308F070E37C932013B8F77E9131
S1130BC070617D9330F0839571E37D9370E32A9592
S1130BD0E1F71124EF90FF900F911F91CF91DF91D6
S1130BE0992787FD909508952F923F924F925F9297
S1130BF06F927F928F929F92AF92BF92CF92DF9229
S1130C00EF92FF920F931F93CF93DF93CDB7DEB78D
S1130C10CA1BDB0B0FB6F894DEBF0FBECDBF099421
S1130C202A88398848885F846E847D848C849B8478
S1130C30AA84B984C884DF80EE80FD800C811B8186
S1130C40AA81B981CE0FD11D0FB6F894DEBF0FBEB5
S10D0C50CDBFED010895F894FFCF25
S1130C5A0000E04048756D6964697479203A20009F
S10B0C6A74656D70203A20004E
S9030000FC
