S01300007261696E5F73656E736F722E737265636E
S11300000C942A000C9434000C9434000C943400A6
S11300100C9434000C9434000C9434000C9434008C
S11300200C9434000C9434000C9434000C9434007C
S11300300C9434000C9434000C9434000C9434006C
S11300400C9434000C9434000C9434000C9434005C
S11300500C94340011241FBECFE5D8E0DEBFCDBF21
S11300600E9450000C9455000C94000084B38160ED
S113007084BB81B38E7F81BB85B38E7F85BB08959E
S1130080809B04C085B3816085BB03C085B38E7F2C
S113009085BB8FE39FE10197F1F700C0000008954D
S11100A00E9436000E944000FDCFF894FFCF6E
S9030000FC
